{
  "_format": "hh-sol-artifact-1",
  "contractName": "MyContract",
  "sourceName": "contracts/minter.sol",
  "abi": [
    {
      "inputs": [
        {
          "internalType": "string",
          "name": "delayedRevealURI",
          "type": "string"
        },
        {
          "internalType": "string",
          "name": "baseUri",
          "type": "string"
        },
        {
          "internalType": "uint256",
          "name": "setAsideTokenCount",
          "type": "uint256"
        }
      ],
      "stateMutability": "nonpayable",
      "type": "constructor"
    },
    {
      "anonymous": false,
      "inputs": [
        {
          "indexed": true,
          "internalType": "address",
          "name": "owner",
          "type": "address"
        },
        {
          "indexed": true,
          "internalType": "address",
          "name": "approved",
          "type": "address"
        },
        {
          "indexed": true,
          "internalType": "uint256",
          "name": "tokenId",
          "type": "uint256"
        }
      ],
      "name": "Approval",
      "type": "event"
    },
    {
      "anonymous": false,
      "inputs": [
        {
          "indexed": true,
          "internalType": "address",
          "name": "owner",
          "type": "address"
        },
        {
          "indexed": true,
          "internalType": "address",
          "name": "operator",
          "type": "address"
        },
        {
          "indexed": false,
          "internalType": "bool",
          "name": "approved",
          "type": "bool"
        }
      ],
      "name": "ApprovalForAll",
      "type": "event"
    },
    {
      "anonymous": false,
      "inputs": [
        {
          "indexed": true,
          "internalType": "address",
          "name": "previousOwner",
          "type": "address"
        },
        {
          "indexed": true,
          "internalType": "address",
          "name": "newOwner",
          "type": "address"
        }
      ],
      "name": "OwnershipTransferred",
      "type": "event"
    },
    {
      "anonymous": false,
      "inputs": [
        {
          "indexed": true,
          "internalType": "address",
          "name": "from",
          "type": "address"
        },
        {
          "indexed": true,
          "internalType": "address",
          "name": "to",
          "type": "address"
        },
        {
          "indexed": true,
          "internalType": "uint256",
          "name": "tokenId",
          "type": "uint256"
        }
      ],
      "name": "Transfer",
      "type": "event"
    },
    {
      "inputs": [],
      "name": "COLLECTION_SIZE",
      "outputs": [
        {
          "internalType": "uint256",
          "name": "",
          "type": "uint256"
        }
      ],
      "stateMutability": "view",
      "type": "function"
    },
    {
      "inputs": [],
      "name": "TOKEN_PER_PERSON_LIMIT",
      "outputs": [
        {
          "internalType": "uint256",
          "name": "",
          "type": "uint256"
        }
      ],
      "stateMutability": "view",
      "type": "function"
    },
    {
      "inputs": [],
      "name": "TOKEN_PRICE",
      "outputs": [
        {
          "internalType": "uint256",
          "name": "",
          "type": "uint256"
        }
      ],
      "stateMutability": "view",
      "type": "function"
    },
    {
      "inputs": [
        {
          "internalType": "address",
          "name": "to",
          "type": "address"
        },
        {
          "internalType": "uint256",
          "name": "tokenId",
          "type": "uint256"
        }
      ],
      "name": "approve",
      "outputs": [],
      "stateMutability": "nonpayable",
      "type": "function"
    },
    {
      "inputs": [
        {
          "internalType": "address",
          "name": "owner",
          "type": "address"
        }
      ],
      "name": "balanceOf",
      "outputs": [
        {
          "internalType": "uint256",
          "name": "",
          "type": "uint256"
        }
      ],
      "stateMutability": "view",
      "type": "function"
    },
    {
      "inputs": [],
      "name": "flipPresaleState",
      "outputs": [],
      "stateMutability": "nonpayable",
      "type": "function"
    },
    {
      "inputs": [],
      "name": "flipSaleState",
      "outputs": [],
      "stateMutability": "nonpayable",
      "type": "function"
    },
    {
      "inputs": [
        {
          "internalType": "uint256",
          "name": "tokenId",
          "type": "uint256"
        }
      ],
      "name": "getApproved",
      "outputs": [
        {
          "internalType": "address",
          "name": "",
          "type": "address"
        }
      ],
      "stateMutability": "view",
      "type": "function"
    },
    {
      "inputs": [
        {
          "internalType": "address",
          "name": "owner",
          "type": "address"
        },
        {
          "internalType": "address",
          "name": "operator",
          "type": "address"
        }
      ],
      "name": "isApprovedForAll",
      "outputs": [
        {
          "internalType": "bool",
          "name": "",
          "type": "bool"
        }
      ],
      "stateMutability": "view",
      "type": "function"
    },
    {
      "inputs": [],
      "name": "isPreSaleActive",
      "outputs": [
        {
          "internalType": "bool",
          "name": "",
          "type": "bool"
        }
      ],
      "stateMutability": "view",
      "type": "function"
    },
    {
      "inputs": [],
      "name": "isSaleActive",
      "outputs": [
        {
          "internalType": "bool",
          "name": "",
          "type": "bool"
        }
      ],
      "stateMutability": "view",
      "type": "function"
    },
    {
      "inputs": [],
      "name": "name",
      "outputs": [
        {
          "internalType": "string",
          "name": "",
          "type": "string"
        }
      ],
      "stateMutability": "view",
      "type": "function"
    },
    {
      "inputs": [],
      "name": "owner",
      "outputs": [
        {
          "internalType": "address",
          "name": "",
          "type": "address"
        }
      ],
      "stateMutability": "view",
      "type": "function"
    },
    {
      "inputs": [
        {
          "internalType": "uint256",
          "name": "tokenId",
          "type": "uint256"
        }
      ],
      "name": "ownerOf",
      "outputs": [
        {
          "internalType": "address",
          "name": "",
          "type": "address"
        }
      ],
      "stateMutability": "view",
      "type": "function"
    },
    {
      "inputs": [
        {
          "components": [
            {
              "internalType": "address",
              "name": "redeemer",
              "type": "address"
            },
            {
              "internalType": "bool",
              "name": "whitelisted",
              "type": "bool"
            }
          ],
          "internalType": "struct MyContract.NFTVoucher",
          "name": "voucher",
          "type": "tuple"
        },
        {
          "internalType": "address",
          "name": "signer",
          "type": "address"
        },
        {
          "internalType": "bytes",
          "name": "signature",
          "type": "bytes"
        }
      ],
      "name": "redeem",
      "outputs": [
        {
          "internalType": "uint256",
          "name": "",
          "type": "uint256"
        }
      ],
      "stateMutability": "payable",
      "type": "function"
    },
    {
      "inputs": [],
      "name": "renounceOwnership",
      "outputs": [],
      "stateMutability": "nonpayable",
      "type": "function"
    },
    {
      "inputs": [],
      "name": "reveal",
      "outputs": [],
      "stateMutability": "nonpayable",
      "type": "function"
    },
    {
      "inputs": [
        {
          "internalType": "address",
          "name": "from",
          "type": "address"
        },
        {
          "internalType": "address",
          "name": "to",
          "type": "address"
        },
        {
          "internalType": "uint256",
          "name": "tokenId",
          "type": "uint256"
        }
      ],
      "name": "safeTransferFrom",
      "outputs": [],
      "stateMutability": "nonpayable",
      "type": "function"
    },
    {
      "inputs": [
        {
          "internalType": "address",
          "name": "from",
          "type": "address"
        },
        {
          "internalType": "address",
          "name": "to",
          "type": "address"
        },
        {
          "internalType": "uint256",
          "name": "tokenId",
          "type": "uint256"
        },
        {
          "internalType": "bytes",
          "name": "_data",
          "type": "bytes"
        }
      ],
      "name": "safeTransferFrom",
      "outputs": [],
      "stateMutability": "nonpayable",
      "type": "function"
    },
    {
      "inputs": [
        {
          "internalType": "address",
          "name": "operator",
          "type": "address"
        },
        {
          "internalType": "bool",
          "name": "approved",
          "type": "bool"
        }
      ],
      "name": "setApprovalForAll",
      "outputs": [],
      "stateMutability": "nonpayable",
      "type": "function"
    },
    {
      "inputs": [
        {
          "internalType": "string",
          "name": "uri",
          "type": "string"
        }
      ],
      "name": "setBaseUri",
      "outputs": [],
      "stateMutability": "nonpayable",
      "type": "function"
    },
    {
      "inputs": [
        {
          "internalType": "string",
          "name": "uri",
          "type": "string"
        }
      ],
      "name": "setHiddenUri",
      "outputs": [],
      "stateMutability": "nonpayable",
      "type": "function"
    },
    {
      "inputs": [
        {
          "internalType": "bytes4",
          "name": "interfaceId",
          "type": "bytes4"
        }
      ],
      "name": "supportsInterface",
      "outputs": [
        {
          "internalType": "bool",
          "name": "",
          "type": "bool"
        }
      ],
      "stateMutability": "view",
      "type": "function"
    },
    {
      "inputs": [],
      "name": "symbol",
      "outputs": [
        {
          "internalType": "string",
          "name": "",
          "type": "string"
        }
      ],
      "stateMutability": "view",
      "type": "function"
    },
    {
      "inputs": [
        {
          "internalType": "uint256",
          "name": "tokenId",
          "type": "uint256"
        }
      ],
      "name": "tokenURI",
      "outputs": [
        {
          "internalType": "string",
          "name": "",
          "type": "string"
        }
      ],
      "stateMutability": "view",
      "type": "function"
    },
    {
      "inputs": [
        {
          "internalType": "address",
          "name": "from",
          "type": "address"
        },
        {
          "internalType": "address",
          "name": "to",
          "type": "address"
        },
        {
          "internalType": "uint256",
          "name": "tokenId",
          "type": "uint256"
        }
      ],
      "name": "transferFrom",
      "outputs": [],
      "stateMutability": "nonpayable",
      "type": "function"
    },
    {
      "inputs": [
        {
          "internalType": "address",
          "name": "newOwner",
          "type": "address"
        }
      ],
      "name": "transferOwnership",
      "outputs": [],
      "stateMutability": "nonpayable",
      "type": "function"
    },
    {
      "inputs": [],
      "name": "withdraw",
      "outputs": [],
      "stateMutability": "nonpayable",
      "type": "function"
    }
  ],
  "bytecode": "0x6101206040526000600860006101000a81548160ff0219169083151502179055506000600860016101000a81548160ff0219169083151502179055506000600860026101000a81548160ff0219169083151502179055503480156200006357600080fd5b5060405162005c8c38038062005c8c833981810160405281019062000089919062000e76565b6040518060400160405280600a81526020017f4d79436f6e7472616374000000000000000000000000000000000000000000008152506040518060400160405280600181526020017f31000000000000000000000000000000000000000000000000000000000000008152506040518060400160405280600a81526020017f4d79436f6e7472616374000000000000000000000000000000000000000000008152506040518060400160405280600281526020017f4d4300000000000000000000000000000000000000000000000000000000000081525081600090805190602001906200017992919062000cfa565b5080600190805190602001906200019292919062000cfa565b50505060008280519060200120905060008280519060200120905060007f8b73c3c69bb8fe3d512ecc4cf759cc79239f7b179b0ffacaa9a75d522b39400f90508260c081815250508160e081815250504660a08181525050620001fd8184846200040660201b60201c565b60808181525050806101008181525050505050505062000232620002266200044260201b60201c565b6200044a60201b60201c565b82600990805190602001906200024a92919062000cfa565b5081600a90805190602001906200026392919062000cfa565b50620003d66040518060400160405280600481526020017f696e69740000000000000000000000000000000000000000000000000000000081525060098054620002ad906200140f565b80601f0160208091040260200160405190810160405280929190818152602001828054620002db906200140f565b80156200032c5780601f1062000300576101008083540402835291602001916200032c565b820191906000526020600020905b8154815290600101906020018083116200030e57829003601f168201915b5050505050600a805462000340906200140f565b80601f01602080910402602001604051908101604052809291908181526020018280546200036e906200140f565b8015620003bf5780601f106200039357610100808354040283529160200191620003bf565b820191906000526020600020905b815481529060010190602001808311620003a157829003601f168201915b5050505050466200051060201b620017eb1760201c565b620003ec33620005bc60201b6200188d1760201c565b620003fd816200065f60201b60201c565b50505062001565565b600083838346306040516020016200042395949392919062001110565b6040516020818303038152906040528051906020012090509392505050565b600033905090565b6000600660009054906101000a900473ffffffffffffffffffffffffffffffffffffffff16905081600660006101000a81548173ffffffffffffffffffffffffffffffffffffffff021916908373ffffffffffffffffffffffffffffffffffffffff1602179055508173ffffffffffffffffffffffffffffffffffffffff168173ffffffffffffffffffffffffffffffffffffffff167f8be0079c531659141344cd1fd0a4f28419497f9722a3daafe3b4186f6b6457e060405160405180910390a35050565b620005b6848484846040516024016200052d94939291906200116d565b6040516020818303038152906040527f9fd009f5000000000000000000000000000000000000000000000000000000007bffffffffffffffffffffffffffffffffffffffffffffffffffffffff19166020820180517bffffffffffffffffffffffffffffffffffffffffffffffffffffffff83818316178352505050506200072560201b60201c565b50505050565b6200065c81604051602401620005d391906200109f565b6040516020818303038152906040527f2c2ecbc2000000000000000000000000000000000000000000000000000000007bffffffffffffffffffffffffffffffffffffffffffffffffffffffff19166020820180517bffffffffffffffffffffffffffffffffffffffffffffffffffffffff83818316178352505050506200072560201b60201c565b50565b60005b8181101562000721576200068260076200074e60201b620019261760201c565b60006200069b60076200076460201b6200193c1760201c565b9050620006e96040518060400160405280601781526020017f7365744173696465206d696e74696e6720746f6b656e3a000000000000000000815250826200077260201b6200194a1760201c565b6200070a620006fd6200081860201b60201c565b826200084260201b60201c565b508080620007189062001445565b91505062000662565b5050565b60008151905060006a636f6e736f6c652e6c6f679050602083016000808483855afa5050505050565b6001816000016000828254019250508190555050565b600081600001549050919050565b6200081482826040516024016200078b929190620011cf565b6040516020818303038152906040527f9710a9d0000000000000000000000000000000000000000000000000000000007bffffffffffffffffffffffffffffffffffffffffffffffffffffffff19166020820180517bffffffffffffffffffffffffffffffffffffffffffffffffffffffff83818316178352505050506200072560201b60201c565b5050565b6000600660009054906101000a900473ffffffffffffffffffffffffffffffffffffffff16905090565b620008648282604051806020016040528060008152506200086860201b60201c565b5050565b6200087a8383620008d660201b60201c565b6200088f600084848462000abc60201b60201c565b620008d1576040517f08c379a0000000000000000000000000000000000000000000000000000000008152600401620008c89062001203565b60405180910390fd5b505050565b600073ffffffffffffffffffffffffffffffffffffffff168273ffffffffffffffffffffffffffffffffffffffff16141562000949576040517f08c379a0000000000000000000000000000000000000000000000000000000008152600401620009409062001247565b60405180910390fd5b6200095a8162000c7660201b60201c565b156200099d576040517f08c379a0000000000000000000000000000000000000000000000000000000008152600401620009949062001225565b60405180910390fd5b620009b16000838362000ce260201b60201c565b6001600360008473ffffffffffffffffffffffffffffffffffffffff1673ffffffffffffffffffffffffffffffffffffffff168152602001908152602001600020600082825462000a03919062001308565b92505081905550816002600083815260200190815260200160002060006101000a81548173ffffffffffffffffffffffffffffffffffffffff021916908373ffffffffffffffffffffffffffffffffffffffff160217905550808273ffffffffffffffffffffffffffffffffffffffff16600073ffffffffffffffffffffffffffffffffffffffff167fddf252ad1be2c89b69c2b068fc378daa952ba7f163c4a11628f55a4df523b3ef60405160405180910390a45050565b600062000aea8473ffffffffffffffffffffffffffffffffffffffff1662000ce760201b620019e61760201c565b1562000c69578373ffffffffffffffffffffffffffffffffffffffff1663150b7a0262000b1c6200044260201b60201c565b8786866040518563ffffffff1660e01b815260040162000b409493929190620010bc565b602060405180830381600087803b15801562000b5b57600080fd5b505af192505050801562000b8f57506040513d601f19601f8201168201806040525081019062000b8c919062000e4a565b60015b62000c18573d806000811462000bc2576040519150601f19603f3d011682016040523d82523d6000602084013e62000bc7565b606091505b5060008151141562000c10576040517f08c379a000000000000000000000000000000000000000000000000000000000815260040162000c079062001203565b60405180910390fd5b805181602001fd5b63150b7a0260e01b7bffffffffffffffffffffffffffffffffffffffffffffffffffffffff1916817bffffffffffffffffffffffffffffffffffffffffffffffffffffffff19161491505062000c6e565b600190505b949350505050565b60008073ffffffffffffffffffffffffffffffffffffffff166002600084815260200190815260200160002060009054906101000a900473ffffffffffffffffffffffffffffffffffffffff1673ffffffffffffffffffffffffffffffffffffffff1614159050919050565b505050565b600080823b905060008111915050919050565b82805462000d08906200140f565b90600052602060002090601f01602090048101928262000d2c576000855562000d78565b82601f1062000d4757805160ff191683800117855562000d78565b8280016001018555821562000d78579182015b8281111562000d7757825182559160200191906001019062000d5a565b5b50905062000d87919062000d8b565b5090565b5b8082111562000da657600081600090555060010162000d8c565b5090565b600062000dc162000dbb846200129d565b62001269565b90508281526020810184848401111562000dda57600080fd5b62000de7848285620013d9565b509392505050565b60008151905062000e008162001531565b92915050565b600082601f83011262000e1857600080fd5b815162000e2a84826020860162000daa565b91505092915050565b60008151905062000e44816200154b565b92915050565b60006020828403121562000e5d57600080fd5b600062000e6d8482850162000def565b91505092915050565b60008060006060848603121562000e8c57600080fd5b600084015167ffffffffffffffff81111562000ea757600080fd5b62000eb58682870162000e06565b935050602084015167ffffffffffffffff81111562000ed357600080fd5b62000ee18682870162000e06565b925050604062000ef48682870162000e33565b9150509250925092565b62000f098162001365565b82525050565b62000f1a8162001379565b82525050565b600062000f2d82620012d0565b62000f398185620012e6565b935062000f4b818560208601620013d9565b62000f568162001520565b840191505092915050565b600062000f6e82620012db565b62000f7a8185620012f7565b935062000f8c818560208601620013d9565b62000f978162001520565b840191505092915050565b600062000fb1603283620012f7565b91507f4552433732313a207472616e7366657220746f206e6f6e20455243373231526560008301527f63656976657220696d706c656d656e74657200000000000000000000000000006020830152604082019050919050565b600062001019601c83620012f7565b91507f4552433732313a20746f6b656e20616c7265616479206d696e746564000000006000830152602082019050919050565b60006200105b602083620012f7565b91507f4552433732313a206d696e7420746f20746865207a65726f20616464726573736000830152602082019050919050565b6200109981620013cf565b82525050565b6000602082019050620010b6600083018462000efe565b92915050565b6000608082019050620010d3600083018762000efe565b620010e2602083018662000efe565b620010f160408301856200108e565b818103606083015262001105818462000f20565b905095945050505050565b600060a08201905062001127600083018862000f0f565b62001136602083018762000f0f565b62001145604083018662000f0f565b6200115460608301856200108e565b62001163608083018462000efe565b9695505050505050565b6000608082019050818103600083015262001189818762000f61565b905081810360208301526200119f818662000f61565b90508181036040830152620011b5818562000f61565b9050620011c660608301846200108e565b95945050505050565b60006040820190508181036000830152620011eb818562000f61565b9050620011fc60208301846200108e565b9392505050565b600060208201905081810360008301526200121e8162000fa2565b9050919050565b6000602082019050818103600083015262001240816200100a565b9050919050565b6000602082019050818103600083015262001262816200104c565b9050919050565b6000604051905081810181811067ffffffffffffffff82111715620012935762001292620014f1565b5b8060405250919050565b600067ffffffffffffffff821115620012bb57620012ba620014f1565b5b601f19601f8301169050602081019050919050565b600081519050919050565b600081519050919050565b600082825260208201905092915050565b600082825260208201905092915050565b60006200131582620013cf565b91506200132283620013cf565b9250827fffffffffffffffffffffffffffffffffffffffffffffffffffffffffffffffff038211156200135a576200135962001493565b5b828201905092915050565b60006200137282620013af565b9050919050565b6000819050919050565b60007fffffffff0000000000000000000000000000000000000000000000000000000082169050919050565b600073ffffffffffffffffffffffffffffffffffffffff82169050919050565b6000819050919050565b60005b83811015620013f9578082015181840152602081019050620013dc565b8381111562001409576000848401525b50505050565b600060028204905060018216806200142857607f821691505b602082108114156200143f576200143e620014c2565b5b50919050565b60006200145282620013cf565b91507fffffffffffffffffffffffffffffffffffffffffffffffffffffffffffffffff82141562001488576200148762001493565b5b600182019050919050565b7f4e487b7100000000000000000000000000000000000000000000000000000000600052601160045260246000fd5b7f4e487b7100000000000000000000000000000000000000000000000000000000600052602260045260246000fd5b7f4e487b7100000000000000000000000000000000000000000000000000000000600052604160045260246000fd5b6000601f19601f8301169050919050565b6200153c8162001383565b81146200154857600080fd5b50565b6200155681620013cf565b81146200156257600080fd5b50565b60805160a05160c05160e051610100516146e2620015aa600039600061295a0152600061299c0152600061297b015260006129070152600061292f01526146e26000f3fe6080604052600436106101b75760003560e01c80638da5cb5b116100ec578063b88d4fde1161008a578063d8258d9511610064578063d8258d95146105c5578063e985e9c5146105f0578063f2fde38b1461062d578063f81227d414610656576101b7565b8063b88d4fde14610534578063c87b56dd1461055d578063d2d8cb671461059a576101b7565b80639d044ed3116100c65780639d044ed3146104a0578063a0bcfc7f146104cb578063a22cb465146104f4578063a475b5dd1461051d576101b7565b80638da5cb5b1461041a578063914ba6c41461044557806395d89b4114610475576101b7565b80633ccfd60b116101595780636352211e116101335780636352211e1461035e57806370a082311461039b578063715018a6146103d857806387bd14bf146103ef576101b7565b80633ccfd60b146102f357806342842e0e1461030a578063564566a814610333576101b7565b8063095ea7b311610195578063095ea7b3146102615780631067fcc71461028a57806323b872dd146102b357806334918dfd146102dc576101b7565b806301ffc9a7146101bc57806306fdde03146101f9578063081812fc14610224575b600080fd5b3480156101c857600080fd5b506101e360048036038101906101de91906131a6565b61066d565b6040516101f09190613d99565b60405180910390f35b34801561020557600080fd5b5061020e61067f565b60405161021b9190613ed5565b60405180910390f35b34801561023057600080fd5b5061024b600480360381019061024691906132a0565b610711565b6040516102589190613d32565b60405180910390f35b34801561026d57600080fd5b5061028860048036038101906102839190613141565b610796565b005b34801561029657600080fd5b506102b160048036038101906102ac91906131f8565b6108ae565b005b3480156102bf57600080fd5b506102da60048036038101906102d5919061303b565b610944565b005b3480156102e857600080fd5b506102f16109a4565b005b3480156102ff57600080fd5b50610308610a7d565b005b34801561031657600080fd5b50610331600480360381019061032c919061303b565b610b8c565b005b34801561033f57600080fd5b50610348610bac565b6040516103559190613d99565b60405180910390f35b34801561036a57600080fd5b50610385600480360381019061038091906132a0565b610bbf565b6040516103929190613d32565b60405180910390f35b3480156103a757600080fd5b506103c260048036038101906103bd9190612fd6565b610c71565b6040516103cf9190614241565b60405180910390f35b3480156103e457600080fd5b506103ed610d29565b005b3480156103fb57600080fd5b50610404610db1565b6040516104119190614241565b60405180910390f35b34801561042657600080fd5b5061042f610db6565b60405161043c9190613d32565b60405180910390f35b61045f600480360381019061045a9190613239565b610de0565b60405161046c9190614241565b60405180910390f35b34801561048157600080fd5b5061048a611063565b6040516104979190613ed5565b60405180910390f35b3480156104ac57600080fd5b506104b56110f5565b6040516104c29190613d99565b60405180910390f35b3480156104d757600080fd5b506104f260048036038101906104ed91906131f8565b611108565b005b34801561050057600080fd5b5061051b60048036038101906105169190613105565b61119e565b005b34801561052957600080fd5b5061053261131f565b005b34801561054057600080fd5b5061055b6004803603810190610556919061308a565b6113b8565b005b34801561056957600080fd5b50610584600480360381019061057f91906132a0565b61141a565b6040516105919190613ed5565b60405180910390f35b3480156105a657600080fd5b506105af6115a7565b6040516105bc9190614241565b60405180910390f35b3480156105d157600080fd5b506105da6115b2565b6040516105e79190614241565b60405180910390f35b3480156105fc57600080fd5b5061061760048036038101906106129190612fff565b6115b7565b6040516106249190613d99565b60405180910390f35b34801561063957600080fd5b50610654600480360381019061064f9190612fd6565b61164b565b005b34801561066257600080fd5b5061066b611743565b005b6000610678826119f9565b9050919050565b60606000805461068e906144c3565b80601f01602080910402602001604051908101604052809291908181526020018280546106ba906144c3565b80156107075780601f106106dc57610100808354040283529160200191610707565b820191906000526020600020905b8154815290600101906020018083116106ea57829003601f168201915b5050505050905090565b600061071c82611adb565b61075b576040517f08c379a000000000000000000000000000000000000000000000000000000000815260040161075290614161565b60405180910390fd5b6004600083815260200190815260200160002060009054906101000a900473ffffffffffffffffffffffffffffffffffffffff169050919050565b60006107a182610bbf565b90508073ffffffffffffffffffffffffffffffffffffffff168373ffffffffffffffffffffffffffffffffffffffff161415610812576040517f08c379a0000000000000000000000000000000000000000000000000000000008152600401610809906141e1565b60405180910390fd5b8073ffffffffffffffffffffffffffffffffffffffff16610831611b47565b73ffffffffffffffffffffffffffffffffffffffff161480610860575061085f8161085a611b47565b6115b7565b5b61089f576040517f08c379a0000000000000000000000000000000000000000000000000000000008152600401610896906140c1565b60405180910390fd5b6108a98383611b4f565b505050565b6108b6611b47565b73ffffffffffffffffffffffffffffffffffffffff166108d4610db6565b73ffffffffffffffffffffffffffffffffffffffff161461092a576040517f08c379a000000000000000000000000000000000000000000000000000000000815260040161092190614181565b60405180910390fd5b8060099080519060200190610940929190612ddf565b5050565b61095561094f611b47565b82611c08565b610994576040517f08c379a000000000000000000000000000000000000000000000000000000000815260040161098b90614201565b60405180910390fd5b61099f838383611ce6565b505050565b6109ac611b47565b73ffffffffffffffffffffffffffffffffffffffff166109ca610db6565b73ffffffffffffffffffffffffffffffffffffffff1614610a20576040517f08c379a0000000000000000000000000000000000000000000000000000000008152600401610a1790614181565b60405180910390fd5b600860009054906101000a900460ff1615600860006101000a81548160ff021916908315150217905550600860009054906101000a900460ff1615610a7b576000600860016101000a81548160ff0219169083151502179055505b565b610a85611b47565b73ffffffffffffffffffffffffffffffffffffffff16610aa3610db6565b73ffffffffffffffffffffffffffffffffffffffff1614610af9576040517f08c379a0000000000000000000000000000000000000000000000000000000008152600401610af090614181565b60405180910390fd5b60004711610b3c576040517f08c379a0000000000000000000000000000000000000000000000000000000008152600401610b3390613fe1565b60405180910390fd5b610b44610db6565b73ffffffffffffffffffffffffffffffffffffffff166108fc479081150290604051600060405180830381858888f19350505050158015610b89573d6000803e3d6000fd5b50565b610ba7838383604051806020016040528060008152506113b8565b505050565b600860009054906101000a900460ff1681565b6000806002600084815260200190815260200160002060009054906101000a900473ffffffffffffffffffffffffffffffffffffffff169050600073ffffffffffffffffffffffffffffffffffffffff168173ffffffffffffffffffffffffffffffffffffffff161415610c68576040517f08c379a0000000000000000000000000000000000000000000000000000000008152600401610c5f90614101565b60405180910390fd5b80915050919050565b60008073ffffffffffffffffffffffffffffffffffffffff168273ffffffffffffffffffffffffffffffffffffffff161415610ce2576040517f08c379a0000000000000000000000000000000000000000000000000000000008152600401610cd9906140e1565b60405180910390fd5b600360008373ffffffffffffffffffffffffffffffffffffffff1673ffffffffffffffffffffffffffffffffffffffff168152602001908152602001600020549050919050565b610d31611b47565b73ffffffffffffffffffffffffffffffffffffffff16610d4f610db6565b73ffffffffffffffffffffffffffffffffffffffff1614610da5576040517f08c379a0000000000000000000000000000000000000000000000000000000008152600401610d9c90614181565b60405180910390fd5b610daf6000611f42565b565b600181565b6000600660009054906101000a900473ffffffffffffffffffffffffffffffffffffffff16905090565b6000610deb8361188d565b610df482612008565b610e0783610e01866120a1565b84612121565b610e46576040517f08c379a0000000000000000000000000000000000000000000000000000000008152600401610e3d90614041565b60405180910390fd5b600f610e52600761193c565b10610e92576040517f08c379a0000000000000000000000000000000000000000000000000000000008152600401610e8990614221565b60405180910390fd5b6001610eaf856000016020810190610eaa9190612fd6565b610c71565b106001604051602001610ec29190613d01565b60405160208183030381529060405290610f12576040517f08c379a0000000000000000000000000000000000000000000000000000000008152600401610f099190613ed5565b60405180910390fd5b5066b1a2bc2ec50000341015610f5d576040517f08c379a0000000000000000000000000000000000000000000000000000000008152600401610f5490614141565b60405180910390fd5b600860019054906101000a900460ff1615610fc957836020016020810190610f85919061317d565b610fc4576040517f08c379a0000000000000000000000000000000000000000000000000000000008152600401610fbb906140a1565b60405180910390fd5b611019565b600860009054906101000a900460ff16611018576040517f08c379a000000000000000000000000000000000000000000000000000000000815260040161100f90614061565b60405180910390fd5b5b6110236007611926565b600061102f600761193c565b905061103b8482612175565b611058848660000160208101906110529190612fd6565b83611ce6565b809150509392505050565b606060018054611072906144c3565b80601f016020809104026020016040519081016040528092919081815260200182805461109e906144c3565b80156110eb5780601f106110c0576101008083540402835291602001916110eb565b820191906000526020600020905b8154815290600101906020018083116110ce57829003601f168201915b5050505050905090565b600860019054906101000a900460ff1681565b611110611b47565b73ffffffffffffffffffffffffffffffffffffffff1661112e610db6565b73ffffffffffffffffffffffffffffffffffffffff1614611184576040517f08c379a000000000000000000000000000000000000000000000000000000000815260040161117b90614181565b60405180910390fd5b80600a908051906020019061119a929190612ddf565b5050565b6111a6611b47565b73ffffffffffffffffffffffffffffffffffffffff168273ffffffffffffffffffffffffffffffffffffffff161415611214576040517f08c379a000000000000000000000000000000000000000000000000000000000815260040161120b90614021565b60405180910390fd5b8060056000611221611b47565b73ffffffffffffffffffffffffffffffffffffffff1673ffffffffffffffffffffffffffffffffffffffff16815260200190815260200160002060008473ffffffffffffffffffffffffffffffffffffffff1673ffffffffffffffffffffffffffffffffffffffff16815260200190815260200160002060006101000a81548160ff0219169083151502179055508173ffffffffffffffffffffffffffffffffffffffff166112ce611b47565b73ffffffffffffffffffffffffffffffffffffffff167f17307eab39ab6107e8899845ad3d59bd9653f200f220920489ca2b5937696c31836040516113139190613d99565b60405180910390a35050565b611327611b47565b73ffffffffffffffffffffffffffffffffffffffff16611345610db6565b73ffffffffffffffffffffffffffffffffffffffff161461139b576040517f08c379a000000000000000000000000000000000000000000000000000000000815260040161139290614181565b60405180910390fd5b6001600860026101000a81548160ff021916908315150217905550565b6113c96113c3611b47565b83611c08565b611408576040517f08c379a00000000000000000000000000000000000000000000000000000000081526004016113ff90614201565b60405180910390fd5b61141484848484612193565b50505050565b606061142582611adb565b611464576040517f08c379a000000000000000000000000000000000000000000000000000000000815260040161145b906141c1565b60405180910390fd5b600061146e6121ef565b9050611478610db6565b73ffffffffffffffffffffffffffffffffffffffff163373ffffffffffffffffffffffffffffffffffffffff1614806114bd5750600860029054906101000a900460ff165b156115135760008151116114e0576040518060200160405280600081525061150b565b806114ea84612281565b6040516020016114fb929190613c9b565b6040516020818303038152906040525b9150506115a2565b60098054611520906144c3565b80601f016020809104026020016040519081016040528092919081815260200182805461154c906144c3565b80156115995780601f1061156e57610100808354040283529160200191611599565b820191906000526020600020905b81548152906001019060200180831161157c57829003601f168201915b50505050509150505b919050565b66b1a2bc2ec5000081565b600f81565b6000600560008473ffffffffffffffffffffffffffffffffffffffff1673ffffffffffffffffffffffffffffffffffffffff16815260200190815260200160002060008373ffffffffffffffffffffffffffffffffffffffff1673ffffffffffffffffffffffffffffffffffffffff16815260200190815260200160002060009054906101000a900460ff16905092915050565b611653611b47565b73ffffffffffffffffffffffffffffffffffffffff16611671610db6565b73ffffffffffffffffffffffffffffffffffffffff16146116c7576040517f08c379a00000000000000000000000000000000000000000000000000000000081526004016116be90614181565b60405180910390fd5b600073ffffffffffffffffffffffffffffffffffffffff168173ffffffffffffffffffffffffffffffffffffffff161415611737576040517f08c379a000000000000000000000000000000000000000000000000000000000815260040161172e90613fa1565b60405180910390fd5b61174081611f42565b50565b61174b611b47565b73ffffffffffffffffffffffffffffffffffffffff16611769610db6565b73ffffffffffffffffffffffffffffffffffffffff16146117bf576040517f08c379a00000000000000000000000000000000000000000000000000000000081526004016117b690614181565b60405180910390fd5b600860019054906101000a900460ff1615600860016101000a81548160ff021916908315150217905550565b611887848484846040516024016118059493929190613ef7565b6040516020818303038152906040527f9fd009f5000000000000000000000000000000000000000000000000000000007bffffffffffffffffffffffffffffffffffffffffffffffffffffffff19166020820180517bffffffffffffffffffffffffffffffffffffffffffffffffffffffff838183161783525050505061242e565b50505050565b611923816040516024016118a19190613d32565b6040516020818303038152906040527f2c2ecbc2000000000000000000000000000000000000000000000000000000007bffffffffffffffffffffffffffffffffffffffffffffffffffffffff19166020820180517bffffffffffffffffffffffffffffffffffffffffffffffffffffffff838183161783525050505061242e565b50565b6001816000016000828254019250508190555050565b600081600001549050919050565b6119e28282604051602401611960929190613f51565b6040516020818303038152906040527f9710a9d0000000000000000000000000000000000000000000000000000000007bffffffffffffffffffffffffffffffffffffffffffffffffffffffff19166020820180517bffffffffffffffffffffffffffffffffffffffffffffffffffffffff838183161783525050505061242e565b5050565b600080823b905060008111915050919050565b60007f80ac58cd000000000000000000000000000000000000000000000000000000007bffffffffffffffffffffffffffffffffffffffffffffffffffffffff1916827bffffffffffffffffffffffffffffffffffffffffffffffffffffffff19161480611ac457507f5b5e139f000000000000000000000000000000000000000000000000000000007bffffffffffffffffffffffffffffffffffffffffffffffffffffffff1916827bffffffffffffffffffffffffffffffffffffffffffffffffffffffff1916145b80611ad45750611ad382612457565b5b9050919050565b60008073ffffffffffffffffffffffffffffffffffffffff166002600084815260200190815260200160002060009054906101000a900473ffffffffffffffffffffffffffffffffffffffff1673ffffffffffffffffffffffffffffffffffffffff1614159050919050565b600033905090565b816004600083815260200190815260200160002060006101000a81548173ffffffffffffffffffffffffffffffffffffffff021916908373ffffffffffffffffffffffffffffffffffffffff160217905550808273ffffffffffffffffffffffffffffffffffffffff16611bc283610bbf565b73ffffffffffffffffffffffffffffffffffffffff167f8c5be1e5ebec7d5bd14f71427d1e84f3dd0314c0f7b2291e5b200ac8c7c3b92560405160405180910390a45050565b6000611c1382611adb565b611c52576040517f08c379a0000000000000000000000000000000000000000000000000000000008152600401611c4990614081565b60405180910390fd5b6000611c5d83610bbf565b90508073ffffffffffffffffffffffffffffffffffffffff168473ffffffffffffffffffffffffffffffffffffffff161480611ccc57508373ffffffffffffffffffffffffffffffffffffffff16611cb484610711565b73ffffffffffffffffffffffffffffffffffffffff16145b80611cdd5750611cdc81856115b7565b5b91505092915050565b8273ffffffffffffffffffffffffffffffffffffffff16611d0682610bbf565b73ffffffffffffffffffffffffffffffffffffffff1614611d5c576040517f08c379a0000000000000000000000000000000000000000000000000000000008152600401611d53906141a1565b60405180910390fd5b600073ffffffffffffffffffffffffffffffffffffffff168273ffffffffffffffffffffffffffffffffffffffff161415611dcc576040517f08c379a0000000000000000000000000000000000000000000000000000000008152600401611dc390614001565b60405180910390fd5b611dd78383836124c1565b611de2600082611b4f565b6001600360008573ffffffffffffffffffffffffffffffffffffffff1673ffffffffffffffffffffffffffffffffffffffff1681526020019081526020016000206000828254611e3291906143c2565b925050819055506001600360008473ffffffffffffffffffffffffffffffffffffffff1673ffffffffffffffffffffffffffffffffffffffff1681526020019081526020016000206000828254611e89919061433b565b92505081905550816002600083815260200190815260200160002060006101000a81548173ffffffffffffffffffffffffffffffffffffffff021916908373ffffffffffffffffffffffffffffffffffffffff160217905550808273ffffffffffffffffffffffffffffffffffffffff168473ffffffffffffffffffffffffffffffffffffffff167fddf252ad1be2c89b69c2b068fc378daa952ba7f163c4a11628f55a4df523b3ef60405160405180910390a4505050565b6000600660009054906101000a900473ffffffffffffffffffffffffffffffffffffffff16905081600660006101000a81548173ffffffffffffffffffffffffffffffffffffffff021916908373ffffffffffffffffffffffffffffffffffffffff1602179055508173ffffffffffffffffffffffffffffffffffffffff168173ffffffffffffffffffffffffffffffffffffffff167f8be0079c531659141344cd1fd0a4f28419497f9722a3daafe3b4186f6b6457e060405160405180910390a35050565b61209e8160405160240161201c9190613eb3565b6040516020818303038152906040527f0be77f56000000000000000000000000000000000000000000000000000000007bffffffffffffffffffffffffffffffffffffffffffffffffffffffff19166020820180517bffffffffffffffffffffffffffffffffffffffffffffffffffffffff838183161783525050505061242e565b50565b600061211a7f2717248cd750a2ea6b48fcbba2d87c0ec331c010dee8d177137b8dab42f303368360000160208101906120da9190612fd6565b8460200160208101906120ed919061317d565b6040516020016120ff93929190613db4565b604051602081830303815290604052805190602001206124c6565b9050919050565b60003373ffffffffffffffffffffffffffffffffffffffff16612142610db6565b73ffffffffffffffffffffffffffffffffffffffff1614801561216c575061216b8484846124e0565b5b90509392505050565b61218f828260405180602001604052806000815250612711565b5050565b61219e848484611ce6565b6121aa8484848461276c565b6121e9576040517f08c379a00000000000000000000000000000000000000000000000000000000081526004016121e090613f81565b60405180910390fd5b50505050565b6060600a80546121fe906144c3565b80601f016020809104026020016040519081016040528092919081815260200182805461222a906144c3565b80156122775780601f1061224c57610100808354040283529160200191612277565b820191906000526020600020905b81548152906001019060200180831161225a57829003601f168201915b5050505050905090565b606060008214156122c9576040518060400160405280600181526020017f30000000000000000000000000000000000000000000000000000000000000008152509050612429565b600082905060005b600082146122fb5780806122e4906144f5565b915050600a826122f49190614391565b91506122d1565b60008167ffffffffffffffff81111561233d577f4e487b7100000000000000000000000000000000000000000000000000000000600052604160045260246000fd5b6040519080825280601f01601f19166020018201604052801561236f5781602001600182028036833780820191505090505b5090505b600085146124225760018261238891906143c2565b9150600a856123979190614552565b60306123a3919061433b565b60f81b8183815181106123df577f4e487b7100000000000000000000000000000000000000000000000000000000600052603260045260246000fd5b60200101907effffffffffffffffffffffffffffffffffffffffffffffffffffffffffffff1916908160001a905350600a8561241b9190614391565b9450612373565b8093505050505b919050565b60008151905060006a636f6e736f6c652e6c6f679050602083016000808483855afa5050505050565b60007f01ffc9a7000000000000000000000000000000000000000000000000000000007bffffffffffffffffffffffffffffffffffffffffffffffffffffffff1916827bffffffffffffffffffffffffffffffffffffffffffffffffffffffff1916149050919050565b505050565b60006124d96124d3612903565b836129c6565b9050919050565b60008060006124ef85856129f9565b915091506000600481111561252d577f4e487b7100000000000000000000000000000000000000000000000000000000600052602160045260246000fd5b816004811115612566577f4e487b7100000000000000000000000000000000000000000000000000000000600052602160045260246000fd5b14801561259e57508573ffffffffffffffffffffffffffffffffffffffff168273ffffffffffffffffffffffffffffffffffffffff16145b156125ae5760019250505061270a565b6000808773ffffffffffffffffffffffffffffffffffffffff16631626ba7e60e01b88886040516024016125e3929190613e3e565b604051602081830303815290604052907bffffffffffffffffffffffffffffffffffffffffffffffffffffffff19166020820180517bffffffffffffffffffffffffffffffffffffffffffffffffffffffff838183161783525050505060405161264d9190613c84565b600060405180830381855afa9150503d8060008114612688576040519150601f19603f3d011682016040523d82523d6000602084013e61268d565b606091505b50915091508180156126a0575060208151145b80156127035750631626ba7e60e01b7bffffffffffffffffffffffffffffffffffffffffffffffffffffffff1916818060200190518101906126e291906131cf565b7bffffffffffffffffffffffffffffffffffffffffffffffffffffffff1916145b9450505050505b9392505050565b61271b8383612a7c565b612728600084848461276c565b612767576040517f08c379a000000000000000000000000000000000000000000000000000000000815260040161275e90613f81565b60405180910390fd5b505050565b600061278d8473ffffffffffffffffffffffffffffffffffffffff166119e6565b156128f6578373ffffffffffffffffffffffffffffffffffffffff1663150b7a026127b6611b47565b8786866040518563ffffffff1660e01b81526004016127d89493929190613d4d565b602060405180830381600087803b1580156127f257600080fd5b505af192505050801561282357506040513d601f19601f8201168201806040525081019061282091906131cf565b60015b6128a6573d8060008114612853576040519150601f19603f3d011682016040523d82523d6000602084013e612858565b606091505b5060008151141561289e576040517f08c379a000000000000000000000000000000000000000000000000000000000815260040161289590613f81565b60405180910390fd5b805181602001fd5b63150b7a0260e01b7bffffffffffffffffffffffffffffffffffffffffffffffffffffffff1916817bffffffffffffffffffffffffffffffffffffffffffffffffffffffff1916149150506128fb565b600190505b949350505050565b60007f0000000000000000000000000000000000000000000000000000000000000000461415612955577f000000000000000000000000000000000000000000000000000000000000000090506129c3565b6129c07f00000000000000000000000000000000000000000000000000000000000000007f00000000000000000000000000000000000000000000000000000000000000007f0000000000000000000000000000000000000000000000000000000000000000612c4a565b90505b90565b600082826040516020016129db929190613cca565b60405160208183030381529060405280519060200120905092915050565b600080604183511415612a3b5760008060006020860151925060408601519150606086015160001a9050612a2f87828585612c84565b94509450505050612a75565b604083511415612a6c576000806020850151915060408501519050612a61868383612d91565b935093505050612a75565b60006002915091505b9250929050565b600073ffffffffffffffffffffffffffffffffffffffff168273ffffffffffffffffffffffffffffffffffffffff161415612aec576040517f08c379a0000000000000000000000000000000000000000000000000000000008152600401612ae390614121565b60405180910390fd5b612af581611adb565b15612b35576040517f08c379a0000000000000000000000000000000000000000000000000000000008152600401612b2c90613fc1565b60405180910390fd5b612b41600083836124c1565b6001600360008473ffffffffffffffffffffffffffffffffffffffff1673ffffffffffffffffffffffffffffffffffffffff1681526020019081526020016000206000828254612b91919061433b565b92505081905550816002600083815260200190815260200160002060006101000a81548173ffffffffffffffffffffffffffffffffffffffff021916908373ffffffffffffffffffffffffffffffffffffffff160217905550808273ffffffffffffffffffffffffffffffffffffffff16600073ffffffffffffffffffffffffffffffffffffffff167fddf252ad1be2c89b69c2b068fc378daa952ba7f163c4a11628f55a4df523b3ef60405160405180910390a45050565b60008383834630604051602001612c65959493929190613deb565b6040516020818303038152906040528051906020012090509392505050565b6000807f7fffffffffffffffffffffffffffffff5d576e7357a4501ddfe92f46681b20a08360001c1115612cbf576000600391509150612d88565b601b8560ff1614158015612cd75750601c8560ff1614155b15612ce9576000600491509150612d88565b600060018787878760405160008152602001604052604051612d0e9493929190613e6e565b6020604051602081039080840390855afa158015612d30573d6000803e3d6000fd5b505050602060405103519050600073ffffffffffffffffffffffffffffffffffffffff168173ffffffffffffffffffffffffffffffffffffffff161415612d7f57600060019250925050612d88565b80600092509250505b94509492505050565b6000806000807f7fffffffffffffffffffffffffffffffffffffffffffffffffffffffffffffff85169150601b8560ff1c019050612dd187828885612c84565b935093505050935093915050565b828054612deb906144c3565b90600052602060002090601f016020900481019282612e0d5760008555612e54565b82601f10612e2657805160ff1916838001178555612e54565b82800160010185558215612e54579182015b82811115612e53578251825591602001919060010190612e38565b5b509050612e619190612e65565b5090565b5b80821115612e7e576000816000905550600101612e66565b5090565b6000612e95612e908461428d565b61425c565b905082815260208101848484011115612ead57600080fd5b612eb8848285614481565b509392505050565b6000612ed3612ece846142bd565b61425c565b905082815260208101848484011115612eeb57600080fd5b612ef6848285614481565b509392505050565b600081359050612f0d81614650565b92915050565b600081359050612f2281614667565b92915050565b600081359050612f378161467e565b92915050565b600081519050612f4c8161467e565b92915050565b600082601f830112612f6357600080fd5b8135612f73848260208601612e82565b91505092915050565b600082601f830112612f8d57600080fd5b8135612f9d848260208601612ec0565b91505092915050565b600060408284031215612fb857600080fd5b81905092915050565b600081359050612fd081614695565b92915050565b600060208284031215612fe857600080fd5b6000612ff684828501612efe565b91505092915050565b6000806040838503121561301257600080fd5b600061302085828601612efe565b925050602061303185828601612efe565b9150509250929050565b60008060006060848603121561305057600080fd5b600061305e86828701612efe565b935050602061306f86828701612efe565b925050604061308086828701612fc1565b9150509250925092565b600080600080608085870312156130a057600080fd5b60006130ae87828801612efe565b94505060206130bf87828801612efe565b93505060406130d087828801612fc1565b925050606085013567ffffffffffffffff8111156130ed57600080fd5b6130f987828801612f52565b91505092959194509250565b6000806040838503121561311857600080fd5b600061312685828601612efe565b925050602061313785828601612f13565b9150509250929050565b6000806040838503121561315457600080fd5b600061316285828601612efe565b925050602061317385828601612fc1565b9150509250929050565b60006020828403121561318f57600080fd5b600061319d84828501612f13565b91505092915050565b6000602082840312156131b857600080fd5b60006131c684828501612f28565b91505092915050565b6000602082840312156131e157600080fd5b60006131ef84828501612f3d565b91505092915050565b60006020828403121561320a57600080fd5b600082013567ffffffffffffffff81111561322457600080fd5b61323084828501612f7c565b91505092915050565b60008060006080848603121561324e57600080fd5b600061325c86828701612fa6565b935050604061326d86828701612efe565b925050606084013567ffffffffffffffff81111561328a57600080fd5b61329686828701612f52565b9150509250925092565b6000602082840312156132b257600080fd5b60006132c084828501612fc1565b91505092915050565b6132d2816143f6565b82525050565b6132e181614408565b82525050565b6132f081614414565b82525050565b61330761330282614414565b61453e565b82525050565b6000613318826142ed565b6133228185614303565b9350613332818560208601614490565b61333b8161463f565b840191505092915050565b6000613351826142ed565b61335b8185614314565b935061336b818560208601614490565b80840191505092915050565b6000613382826142f8565b61338c818561431f565b935061339c818560208601614490565b6133a58161463f565b840191505092915050565b60006133bb826142f8565b6133c58185614330565b93506133d5818560208601614490565b80840191505092915050565b60006133ee601283614330565b91507f20746f6b656e28732920706572207573657200000000000000000000000000006000830152601282019050919050565b600061342e60328361431f565b91507f4552433732313a207472616e7366657220746f206e6f6e20455243373231526560008301527f63656976657220696d706c656d656e74657200000000000000000000000000006020830152604082019050919050565b600061349460268361431f565b91507f4f776e61626c653a206e6577206f776e657220697320746865207a65726f206160008301527f64647265737300000000000000000000000000000000000000000000000000006020830152604082019050919050565b60006134fa601c8361431f565b91507f4552433732313a20746f6b656e20616c7265616479206d696e746564000000006000830152602082019050919050565b600061353a600283614330565b91507f19010000000000000000000000000000000000000000000000000000000000006000830152600282019050919050565b600061357a600a8361431f565b91507f4e6f2062616c616e6365000000000000000000000000000000000000000000006000830152602082019050919050565b60006135ba60248361431f565b91507f4552433732313a207472616e7366657220746f20746865207a65726f2061646460008301527f72657373000000000000000000000000000000000000000000000000000000006020830152604082019050919050565b600061362060198361431f565b91507f4552433732313a20617070726f766520746f2063616c6c6572000000000000006000830152602082019050919050565b600061366060118361431f565b91507f496e76616c6964207369676e61747572650000000000000000000000000000006000830152602082019050919050565b60006136a0601b8361431f565b91507f53616c65206d7573742062652061637469766520746f206d696e7400000000006000830152602082019050919050565b60006136e0602c8361431f565b91507f4552433732313a206f70657261746f7220717565727920666f72206e6f6e657860008301527f697374656e7420746f6b656e00000000000000000000000000000000000000006020830152604082019050919050565b6000613746601a8361431f565b91507f55736572206973206e6f74206f6e20612077686974656c6973740000000000006000830152602082019050919050565b600061378660388361431f565b91507f4552433732313a20617070726f76652063616c6c6572206973206e6f74206f7760008301527f6e6572206e6f7220617070726f76656420666f7220616c6c00000000000000006020830152604082019050919050565b60006137ec602a8361431f565b91507f4552433732313a2062616c616e636520717565727920666f7220746865207a6560008301527f726f2061646472657373000000000000000000000000000000000000000000006020830152604082019050919050565b600061385260298361431f565b91507f4552433732313a206f776e657220717565727920666f72206e6f6e657869737460008301527f656e7420746f6b656e00000000000000000000000000000000000000000000006020830152604082019050919050565b60006138b860208361431f565b91507f4552433732313a206d696e7420746f20746865207a65726f20616464726573736000830152602082019050919050565b60006138f860228361431f565b91507f45746865722076616c75652073656e74206973206e6f7420737566666963696560008301527f6e740000000000000000000000000000000000000000000000000000000000006020830152604082019050919050565b600061395e602c8361431f565b91507f4552433732313a20617070726f76656420717565727920666f72206e6f6e657860008301527f697374656e7420746f6b656e00000000000000000000000000000000000000006020830152604082019050919050565b60006139c4600583614330565b91507f2e6a736f6e0000000000000000000000000000000000000000000000000000006000830152600582019050919050565b6000613a0460208361431f565b91507f4f776e61626c653a2063616c6c6572206973206e6f7420746865206f776e65726000830152602082019050919050565b6000613a4460298361431f565b91507f4552433732313a207472616e73666572206f6620746f6b656e2074686174206960008301527f73206e6f74206f776e00000000000000000000000000000000000000000000006020830152604082019050919050565b6000613aaa602f8361431f565b91507f4552433732314d657461646174613a2055524920717565727920666f72206e6f60008301527f6e6578697374656e7420746f6b656e00000000000000000000000000000000006020830152604082019050919050565b6000613b1060218361431f565b91507f4552433732313a20617070726f76616c20746f2063757272656e74206f776e6560008301527f72000000000000000000000000000000000000000000000000000000000000006020830152604082019050919050565b6000613b7660318361431f565b91507f4552433732313a207472616e736665722063616c6c6572206973206e6f74206f60008301527f776e6572206e6f7220617070726f7665640000000000000000000000000000006020830152604082019050919050565b6000613bdc601b8361431f565b91507f416c6c20746f6b656e732068617665206265656e206d696e74656400000000006000830152602082019050919050565b6000613c1c600583614330565b91507f4f6e6c79200000000000000000000000000000000000000000000000000000006000830152600582019050919050565b613c588161446a565b82525050565b613c6f613c6a8261446a565b614548565b82525050565b613c7e81614474565b82525050565b6000613c908284613346565b915081905092915050565b6000613ca782856133b0565b9150613cb382846133b0565b9150613cbe826139b7565b91508190509392505050565b6000613cd58261352d565b9150613ce182856132f6565b602082019150613cf182846132f6565b6020820191508190509392505050565b6000613d0c82613c0f565b9150613d188284613c5e565b602082019150613d27826133e1565b915081905092915050565b6000602082019050613d4760008301846132c9565b92915050565b6000608082019050613d6260008301876132c9565b613d6f60208301866132c9565b613d7c6040830185613c4f565b8181036060830152613d8e818461330d565b905095945050505050565b6000602082019050613dae60008301846132d8565b92915050565b6000606082019050613dc960008301866132e7565b613dd660208301856132c9565b613de360408301846132d8565b949350505050565b600060a082019050613e0060008301886132e7565b613e0d60208301876132e7565b613e1a60408301866132e7565b613e276060830185613c4f565b613e3460808301846132c9565b9695505050505050565b6000604082019050613e5360008301856132e7565b8181036020830152613e65818461330d565b90509392505050565b6000608082019050613e8360008301876132e7565b613e906020830186613c75565b613e9d60408301856132e7565b613eaa60608301846132e7565b95945050505050565b60006020820190508181036000830152613ecd818461330d565b905092915050565b60006020820190508181036000830152613eef8184613377565b905092915050565b60006080820190508181036000830152613f118187613377565b90508181036020830152613f258186613377565b90508181036040830152613f398185613377565b9050613f486060830184613c4f565b95945050505050565b60006040820190508181036000830152613f6b8185613377565b9050613f7a6020830184613c4f565b9392505050565b60006020820190508181036000830152613f9a81613421565b9050919050565b60006020820190508181036000830152613fba81613487565b9050919050565b60006020820190508181036000830152613fda816134ed565b9050919050565b60006020820190508181036000830152613ffa8161356d565b9050919050565b6000602082019050818103600083015261401a816135ad565b9050919050565b6000602082019050818103600083015261403a81613613565b9050919050565b6000602082019050818103600083015261405a81613653565b9050919050565b6000602082019050818103600083015261407a81613693565b9050919050565b6000602082019050818103600083015261409a816136d3565b9050919050565b600060208201905081810360008301526140ba81613739565b9050919050565b600060208201905081810360008301526140da81613779565b9050919050565b600060208201905081810360008301526140fa816137df565b9050919050565b6000602082019050818103600083015261411a81613845565b9050919050565b6000602082019050818103600083015261413a816138ab565b9050919050565b6000602082019050818103600083015261415a816138eb565b9050919050565b6000602082019050818103600083015261417a81613951565b9050919050565b6000602082019050818103600083015261419a816139f7565b9050919050565b600060208201905081810360008301526141ba81613a37565b9050919050565b600060208201905081810360008301526141da81613a9d565b9050919050565b600060208201905081810360008301526141fa81613b03565b9050919050565b6000602082019050818103600083015261421a81613b69565b9050919050565b6000602082019050818103600083015261423a81613bcf565b9050919050565b60006020820190506142566000830184613c4f565b92915050565b6000604051905081810181811067ffffffffffffffff8211171561428357614282614610565b5b8060405250919050565b600067ffffffffffffffff8211156142a8576142a7614610565b5b601f19601f8301169050602081019050919050565b600067ffffffffffffffff8211156142d8576142d7614610565b5b601f19601f8301169050602081019050919050565b600081519050919050565b600081519050919050565b600082825260208201905092915050565b600081905092915050565b600082825260208201905092915050565b600081905092915050565b60006143468261446a565b91506143518361446a565b9250827fffffffffffffffffffffffffffffffffffffffffffffffffffffffffffffffff0382111561438657614385614583565b5b828201905092915050565b600061439c8261446a565b91506143a78361446a565b9250826143b7576143b66145b2565b5b828204905092915050565b60006143cd8261446a565b91506143d88361446a565b9250828210156143eb576143ea614583565b5b828203905092915050565b60006144018261444a565b9050919050565b60008115159050919050565b6000819050919050565b60007fffffffff0000000000000000000000000000000000000000000000000000000082169050919050565b600073ffffffffffffffffffffffffffffffffffffffff82169050919050565b6000819050919050565b600060ff82169050919050565b82818337600083830152505050565b60005b838110156144ae578082015181840152602081019050614493565b838111156144bd576000848401525b50505050565b600060028204905060018216806144db57607f821691505b602082108114156144ef576144ee6145e1565b5b50919050565b60006145008261446a565b91507fffffffffffffffffffffffffffffffffffffffffffffffffffffffffffffffff82141561453357614532614583565b5b600182019050919050565b6000819050919050565b6000819050919050565b600061455d8261446a565b91506145688361446a565b925082614578576145776145b2565b5b828206905092915050565b7f4e487b7100000000000000000000000000000000000000000000000000000000600052601160045260246000fd5b7f4e487b7100000000000000000000000000000000000000000000000000000000600052601260045260246000fd5b7f4e487b7100000000000000000000000000000000000000000000000000000000600052602260045260246000fd5b7f4e487b7100000000000000000000000000000000000000000000000000000000600052604160045260246000fd5b6000601f19601f8301169050919050565b614659816143f6565b811461466457600080fd5b50565b61467081614408565b811461467b57600080fd5b50565b6146878161441e565b811461469257600080fd5b50565b61469e8161446a565b81146146a957600080fd5b5056fea2646970667358221220c0fa9eae5d3cf68cdeb1c4876342c1339bf1df7cc3b1f03fdaecc17fb483609764736f6c63430008000033",
  "linkReferences": {},
  "deployedLinkReferences": {}
}